:020000040000FA
:10000000E4EF07F01200FFFF04EF08F01200FFFF1B
:10001000FFFFFFFFFFFFFFFF0CEF08F01200FFFFE5
:100020000000F00E8B1694160201A36BA769A86955
:10003000A969A66B010EAA6F1200D9CFE6FFE1CF26
:10004000D9FFE6520201A3511FE1020108BF1BD0F4
:10005000400EE66EA50EE66E000EE66E09EC06F0AA
:10006000E552E552E5520201010EA36FDF6A400E30
:10007000DF5C09E2DF50EA6A600FE96E000EEA22F7
:10008000EF6ADF2AF4D796D10001A551080A01E1F1
:1000900080D10F0A01E123D1010A01E118D1030A3D
:1000A00001E1B4D0010A6AE0070A5DE0010A01E05B
:1000B00081D10001020E606F00013A0E616F0001F4
:1000C000010E626F0001010E636F0001646B100E80
:1000D000656F666B676B0001686B300E696F6A6BEA
:1000E0006B6B0001030E6C6F00016D6B6E6B300E5D
:1000F0006F6F706B00010E0E716F726B736B746BB0
:100100000001010E756F0001766B776B200E786F22
:10011000796B0001080E7A6F7B6B7C6B7D6B000145
:100120007E690001020E7E6F00017F6B806BF00E16
:10013000816F826B0001836B010E846F856B866B10
:100140000001876902010CBF0DD0400EE66E600E03
:10015000E66E000EE66ED9EC05F0E552E552E5528A
:100160000201A36B27D10201010EAA6F0001A65163
:1001700002E10201AA6B0201A36B1CD1400E020135
:10018000A46FA56B0201000EA45D010EA5591FE22C
:100190000400A4C200F0A5C201F0026A060E1F0B03
:1001A00000C0F6FF01C0F7FF02C0F8FF06E0D890DC
:1001B000F636F736F836E806FAE1940EA66EA3D9BD
:1001C00063EC06F00201A42B000EA523DBD7DF6A47
:1001D000DF50A96EA868040EA66E63EC06F093D9F2
:1001E000DF50DF2A006E016A026AFF0E005C000E1B
:1001F0000158000E0258ECE3F66AF76A200EF86E1A
:10020000940EA66E80D90201A36BD4D0300E0001EB
:10021000A85D07E10201AA5101E132D90201A36BF5
:10022000C9D0F00E0001A85D04E14DD90201A36B15
:10023000C1D0E8680201A71905E1E868A81902E140
:10024000E868A91906E1A6C0A7F2A7C0A8F2A8C04D
:10025000A9F2A70EE96E020EEA6EEE500001A61991
:1002600008E1EE500001A71904E1EE500001A819C1
:1002700000E12AE1DF6A0001AA51DF5C25E23A0EC3
:100280000001D880AA55DF24EA6AAB0FE96E000EA0
:10029000EA22EF50E66E0201A651EA6AAB0FE96E60
:1002A000020EEA22E552E750EF6E0201A62B020190
:1002B000A72B000EA823000EA923100E0201A65D95
:1002C00001E17DD8DF2AD7D70201A36B73D077D89D
:1002D0000201A769A869A9690201A36B6BD000019B
:1002E000070E606FA6C061F0A7C062F0A8C063F0FF
:1002F000A9C064F0AAC065F0A6C0F6FFA7C0F7FFCA
:10030000A8C0F8FFDF6A0001AA51DF5C31E2F00EFD
:100310000001A85D13E1DF500001A625A96EA66AC1
:10032000A6803A0E0001D880AA55DF24EA6A660F3B
:10033000E96E000EEA22A8CFEFFF18D00900300EB8
:10034000F85C08E1050EF65C01E1F568080EF65C64
:1003500001E1F5683A0E0001D880AA55DF24EA6A67
:10036000660FE96E000EEA22F5CFEFFFDF2ACBD74A
:1003700002010CBF0DD0400EE66E600EE66E000E60
:10038000E66ED9EC05F0E552E552E5520201A36BA9
:1003900011D06492646ADF6AFF0EDF5C09E2E868EC
:1003A000E85004E0E80600D000D0FAD7DF2AF4D7FE
:1003B000FF0000D0E552E552E7CFD9FF120000015F
:1003C000A16BA6C200F0016A026A00500201A75D9B
:1003D000F66E01500201A859F76E02500201A959A8
:1003E000F86E0F0EF6140001A26FF00EF616000163
:1003F000A06B100E0001A05D1FE20001A25115E1EB
:100400000201A6510FE00001A151EA6AAB0FE96EAB
:10041000020EEA22EF50F56E0D000001A12B020141
:10042000A60702D0F5680D0004D0F5680D000001A4
:10043000A2070001A02BDDD70A00A40EA66E63D888
:100440000001A06B0201A6510001A05D18E20001AD
:10045000A1510001A025EA6AAB0FE96E020EEA2263
:10046000EF50E66E0001A051EA6AAB0FE96E020E92
:10047000EA22E552E750EF6E0001A02BE3D712000D
:10048000A6C0F6FFA7C0F7FFA8C0F8FF0001A36B46
:100490000001AA510001A35D15E23A0E0001D880C7
:1004A000AA550001A325EA6AAB0FE96E000EEA2205
:1004B000EF50F56E0C00C40EA66E25D809000001A1
:1004C000A32BE6D712000001A46B0001AA51000182
:1004D000A45D18E20001A6510001A425A96E3A0E00
:1004E0000001D880AA550001A425EA6AAB0FE96E85
:1004F000000EEA22EF50A86E040EA66E04D800018A
:10050000A42BE3D71200F29E550EA76EAA0EA76E7B
:10051000A682A6B2FED7A69412007DD9E6526350F9
:1005200032E16296020100513C0BE842E8420D08BC
:1005300028E1180E021923E1020E031920E1100E22
:10054000026F020E036FDF6ADF50006E016A080E51
:10055000005C000E015813E2DF50EA6A180FE96EE2
:10056000020EEA22EF50E66EDF50EA6A100FE96EE3
:10057000020EEA22E552E750EF6EDF2AE5D70ED8E9
:100580000AD03FD808D0040E635C03E1629650D8CD
:1005900002D0000E01D0010EE55242D13CD9E65204
:1005A000020104BF046B0201FD6BF56BF66BFB6B84
:1005B000FC6B1CEC04F0DF6ADF50006E016A010E78
:1005C000005C000E01581AE20201F65117E1F76AC9
:1005D000DF34FE0BF736F66EA00EF6260E0EF7226F
:1005E0000900F5CF00F00800F5CF01F004D001C0FC
:1005F000FAFF0050F96EFBDFDF2ADED7B7D8E552ED
:100600000FD1020E0201F55D0EE184D80201180E31
:10061000026F020E036F080E016F00BD02D0C80EFC
:1006200005D0880E03D0DBD8E7D88C0E006F1200FF
:10063000040E0001E55D0CE112C25CFF0F015C518C
:10064000000803E20001050E02D00001030EE56F71
:100650000201F50510E111D8020E0201FD5D03E172
:100660000201840E06D0020104BD02D0C80E01D0E2
:10067000880E046F1200EFEF03F0CDD8020EE126D2
:100680000201080EFB5D000EFC590DE2FBC2DEFF0D
:10069000FCC2DDFFFD5102E1010E03D0FD0506E1C4
:1006A000020EFD6F03D0080EDE6EDD6A02010493B8
:1006B0000491010EDB500413DFCF05F2000EDB5076
:1006C0000201FB5F010EDB50FC5B180EF96F020E9E
:1006D000FA6F0001E6A30CD097D815E0F7C2F6FF39
:1006E000F8C2F7FF0800F5507FD8F6E2DB06F4D732
:1006F0008BD809E0F7C2E9FFF8C2EAFFEF5074D8DF
:10070000F7E2DB06F5D7020EE15C02E2E16AE552B0
:10071000E16E86D080D8020EE126030E020100159C
:10072000E76E010EE7CFDBFF01C2DFFFDE50020103
:10073000FB27DD50FC23180EF76F020EF86F64D80C
:100740000EE0F7C2E9FFF8C2EAFFEF50F9C2E9FF95
:10075000FAC2EAFFEF6E68D8F2E2DB06F0D7020ECB
:10076000E15C02E2E16AE552E16E5AD0649802016E
:10077000F65105E141D8840E006F02011DD002013F
:1007800010AF1CD00201FB510201165D0201FC51A9
:100790000201175904E216C2FBF217C2FCF26DDF28
:1007A0000201010EF56F28D8800E006F0201180EAD
:1007B000066F020E076FC80E046F12000201020ED0
:1007C000F56F0201056BC80E046F0201080E016F80
:1007D000180E026F020E036FC80E006F12000201A6
:1007E000F56B0201046B1200F9C2E9FFFAC2EAFFDD
:1007F000EF6E020114EF04F00201080E016F100EFB
:10080000026F020E036F1200D9CFE9FFDACFEAFFC1
:10081000EE50ED101200D9CFE6FFE1CFD9FF120064
:10082000E552E7CFD9FF1200F92B000EFA23F72B80
:10083000F823DF06010E120002011051600BE8429E
:10084000E842E842E842E842000901E012001151A2
:10085000070A40E00B0A3EE0070A33E0010A23E002
:100860000B0A1FE0020A1DE0030A19E0080A10E063
:10087000010A0CE00F0A08E0030A01E0120012D995
:100880000001040EE56F12006BEF04F0A2EF04F01C
:1008900009D90201E70EF76F000EF86F0CD0BDEF1B
:1008A00004F0EFEF04F002D90201F76FF86BE80EE5
:1008B000F727000EF8230001E6930201010EFB6FFB
:1008C0001200F4D8EA6AE80FE96E000EEA2212C2BA
:1008D000EFFF12001200800E0201105D32E1135191
:1008E000030A1FE0010A0AE0030A29E1DBD802013A
:1008F000E00EF76F0D0EF86F120E1ED0B2D8960EE6
:10090000F6260E0EC0D8020E0201F76AF725F66E23
:10091000F851F7220900F5CFFBF20A00F5CFFCF2FF
:100920000ED09FD89A0EF6260E0EADD8F7C2F6FF5F
:10093000F8C2F7FF0800F5500201FB6FFC6B0001E5
:10094000E6831200AFD8070EE66E540EE66E0F0E69
:10095000A2D8010EE66EE80EE66E000E9CD812C21A
:10096000E7F00201125104E10001050EE56F1200EB
:100970000001060EE56FC3EF05F00201186B196B5D
:10098000020110511F0B020A0FE0030A0BE0010ADB
:1009900018E188D8020118810001E6A112D00201F5
:1009A00018830FD07FD80DD050D801E0010E62D847
:1009B000F9C2E9FFEA6EEF50040B03E00201010EF9
:1009C000186F0201F6050AE10201180EF76F020E18
:1009D000F86F0001E6930201020EFB6F12000201A4
:1009E00012050EE110511F0B00090AE15BD8030E3E
:1009F0000201115D03E10001E68102D00001E691F0
:100A00000201125121E110511F0B02081DE1145186
:100A10000F0B000919E019D801E0010E2BD8030EC5
:100A20000201115D02E1840E03D014AF07D0400E25
:100A3000F9C2E9FFFAC2EAFFEF6E1200880EF9C2AE
:100A4000E9FFFAC2EAFFEF6E120030D80F0B080D73
:100A5000F350016A000F006E020E01221451800B48
:100A6000120020D802011251F66EF76AD890F636BD
:100A7000F7361200040DF35002010024F96F000E46
:100A80000120FA6F1200F7220900F5CFF7F20A00F1
:100A9000F5CFF8F21200E66EDBEC06F0E552E55217
:100AA000E55212000201010EF66F1200FBDF020197
:100AB00014511200020110511F0B010801E0120035
:100AC000145101E01200060E115D24E11351230AB6
:100AD0001FE0010A0DE0030A1BE1DCD80001E70575
:100AE00005E10201040EF76F0E0EF86F090E0DD02E
:100AF000D1D80001E70505E10201790EF76F0E0E6E
:100B0000F86F0001E70504E11D0E0201FB6FFC6BAD
:100B10000001E68302011051600BE842E842E8421E
:100B2000E842E842010801E0120011510B0A25E0F9
:100B3000080A17E0090A11E0080A09E00B0A05E0B3
:100B4000080A01E01200C1EF05F0C2EF05F0A2D8DB
:100B50000201E90EF76F000E09D09CD813C2E9F02C
:100B6000120098D80201EA0EF76F000EF86F00012C
:100B7000E6930201010EFB6F12008CD812C2EAF05C
:100B80001200120012000001EB6B0F011E0E546FD9
:100B90000201400E096F200E0A6F020E0B6F880EC5
:100BA000086F0201600E0E6F020E0F6F400E0C6F89
:100BB0001200D9CFE6FFE1CFD9FFE652FC0EDB50A1
:100BC000400805E2400EF36EFC0EF3CFDBFFDF6A58
:100BD000FC0EDB50DF5C0FE2DF5050D8EF50E66ECA
:100BE000DF50EA6A600FE96E020EEA22E552E75032
:100BF000EF6EDF2AEDD7FC0EDBCF0DF2400E0201C7
:100C00000C170C7D880E0C13E552E552E7CFD9FF87
:100C10001200D9CFE6FFE1CFD9FF0001EB6B020153
:100C200008BF26D0FC0EDBCF00F00951D88000545D
:100C300003E2FC0E09C2DBFF0001EB6BFC0EDB5094
:100C4000EB5D0FE2EB51EA6A200FE96E020EEA2239
:100C5000EF50E66EEB5112D8E552E750EF6EEB2BFA
:100C6000EDD70201400E096F0817087D880E0813A2
:100C70000001EB51E552E7CFD9FF1200E76EFD0E00
:100C8000DBCFE9FFFE0EDBCFEAFFE750E926000EDF
:100C9000EA2212000201020EF66F120064A60CD8BE
:100CA0000001E50508E164BA06D0626A606A608006
:100CB0006088020EE56F1200646A606A6486000153
:100CC000010EE56F12000001E55101E1120062B46E
:100CD00025D864B2120062B03AD862B817D862BAA6
:100CE00024D8030E0001E55D01E212000201FE6B53
:100CF000040EFE5D0AE262A608D08DEC02F0000947
:100D000001E162960201FE2BF3D712006084629823
:100D10006482A194A0840300A09412006492609461
:100D200062A402D06294FCD712000F0153A10DD02F
:100D3000800E0201005D07E1840E0201045D03E103
:100D400002018C0E006F0F015391629A12000F0185
:100D50005F6B626A0F019F0E5B6F7B0E606E0F010F
:100D60005C6B070EE66E540EE66E0F0EE66E23D831
:100D7000E552E552E5520F01160E536F62A605D0FB
:100D8000629600D000D00000F9D76498EFEC03F031
:100D90000201080E016F0201100E026F020E036FB6
:100DA00002018C0E006F0001E6910001E76B00016B
:100DB000030EE56F1200D9CFE6FFE1CFD9FFFD0E9C
:100DC000DBCFE9FFFE0EDBCFEAFFFC0EDB5004E0D9
:100DD000EE6AFC0EDB06F9D7E552E7CFD9FF120029
:100DE0001201000200000008D8043C0002000102C9
:100DF000000109022900010100C0320904000002BB
:100E000003000000092111010001221D00070581D6
:100E100003400001070501034000010403090434F5
:100E2000034D006900630072006F00630068006991
:100E3000007000200054006500630068006E006FC1
:100E4000006C006F0067007900200049006E0063AD
:100E5000002E00260348004900440020005500539E
:100E6000004200200042006F006F0074006C006FB1
:100E70000061006400650072000600FF0901A10125
:100E800019012940150026FF0075089540810019B9
:100E90000129409100C0F20DF20D1B0E1F0E530EE2
:100EA000B40A200EF66E000EF76E000EF86E020108
:100EB0000900F550F06F0900F550F16F03E1F0679C
:100EC00001D03DD00900F550EB6F0900F550EC6FF3
:100ED0000900F550ED6F09000900F550E96E0900B1
:100EE000F550EA6E090009000900F550EE6F09009F
:100EF000F550EF6F09000900F6CFF2F2F7CFF3F2E9
:100F0000F8CFF4F2EBC2F6FFECC2F7FFEDC2F8FF48
:100F10000201EE5302E1EF5307E00900F550EE6ED7
:100F2000EE07F8E2EF07F9D7F2C2F6FFF3C2F7FFD8
:100F3000F4C2F8FF0201F007000EF15BBFD7120008
:100F40000F0EC16EF19E77860000000000000000C9
:100F5000000000000000000000000000D0B802D037
:100F6000D08806D080A604D0070EC16E00EF08F02E
:100F70000DD8040015D8060E0001E55D05E16450AA
:100F8000020B02E11DEC00F0F4D71200140E616EAA
:100F90000001E56B0001E66B0001E76B11EF00F06B
:100FA0004EEC06F063EF06F0000EF36E00EE00F07C
:100FB000030E01D81200EA6002D0EE6AFCD7F350AB
:100FC000E9601200EE6AFCD711EE00F021EE00F0AD
:100FD000F86A049C51EC07F0F2EC07F0A0EC07F083
:100FE000FBD712001200FFFFFFFFFFFFFFFFFFFF15
:100FF000FFFFFFFFFFFFFFFFFFFFFFFFFFFFFFFF01
:1010000048EF1EF01200120016EF08F01200FFFF6A
:10101000FFFFFFFFFFFFFFFF1DEF08F012000100C1
:10102000C23C00006000000057000000DACFE4FF7F
:10103000E652E552E5CFDAFF1100D8CFE4FFE0CF6A
:10104000E4FFE46EDACFE4FFE652F2A40DD0F294AE
:10105000FA0ED76E240ED66E0001B22BAE51B25DE1
:1010600003E3B26B010EB36FE552E5CFDAFFE55053
:10107000E5CFE0FFE5CFD8FF100004D81DEC15F058
:1010800033D9FCD70F0EC11202D8B8EF14F0D9CF64
:10109000E6FFE1CFD9FF040EE126010EF36E020E4A
:1010A000F3CFDBFFF00E936E94688B687E6A7F6AE5
:1010B000F18E0101506B516B526B536B546B556B3E
:1010C000566B576B0001666B676B686B696BDF6A09
:1010D000400EDF5C10E2DF50EA6A790FE96E020E23
:1010E000EA22EF6ADF50EA6AB90FE96E020EEA22DD
:1010F000EF6ADF2AEDD702016C6B6CC26BF26CC237
:101100006AF26CC269F26F6B6FC26EF26FC26DF2FF
:101110000201686B68C267F268C266F268C265F273
:1011200068C264F268C263F268C262F268C261F2C5
:101130000101436B43C142F143C141F143C140F15D
:101140004F6B4FC14EF14FC14DF14FC14CF14FC1EB
:101150004BF14FC14AF14FC149F14FC148F1446BC6
:10116000456B800E466F476FDF6A0C0EDF5C34E222
:101170009BEC14F0EF6A9BEC14F0010EE926000ED4
:10118000EA22EF6A010EDB6AA5EC14F023E2DF50DD
:10119000030DF3CF16F0F4CF17F08A0E1626000ECB
:1011A0001722010EDB5000011624146E000E1720CA
:1011B000156E14C0E6FF80EC14F086EC14F02DECF4
:1011C0001CF0186E060EE15E1850B3EC14F0010E20
:1011D000DB2ADAD7DF2AC9D7AE0EE66E000E80EC26
:1011E00014F0B40E76EC14F0AF0EE66E000E80EC48
:1011F00014F0B90E76EC14F0B00EE66E000E80EC32
:1012000014F0BE0E76EC14F0B10EE66E000E80EC1B
:1012100014F0C30E76EC14F000018A5150E08A05F8
:101220004EE0020E8A5D4BE0030E8A5D48E0DF6A05
:101230000C0EDF5C24E2010EDB6AA5EC14F01DE26B
:10124000DF50030DF3CF14F0F4CF15F08A0E1426FF
:10125000000E1522010EDB500F011424E96E000E62
:101260001520EA6EEF6A050EE66EE66A86EC14F06B
:101270006EEC14F0010EDB2AE0D7DF2AD9D700018B
:10128000B06B040EAE6F020EAF6F010EB16F050EA4
:10129000E66EAEC0E6FFB40EADEC14F0AFC0E6FFF4
:1012A000B90EADEC14F0B0C0E6FFBE0EADEC14F01C
:1012B000B1C0E6FFC30EE66EE6686EEC14F0820E77
:1012C000D56EFA0ED76E240ED66ED08EF194F28AB9
:1012D000F28CF28E040EE15C02E2E16AE552E16E0C
:1012E000E552E7CFD9FF1200D9CFE6FFE1CFD9FF12
:1012F0000D0EE1260001B30501E03FD30001B36B01
:101300008150200B200A01E0010E800DF3CF1AF06E
:101310008150400B400A01E0010E400DF3CF19F05F
:101320008150800B800A01E0010E200DF3CF18F0F0
:101330008250800B800A01E0010E100DF3CF17F0F0
:101340008250400B400A01E0010E080DF3CF16F069
:101350008250080B080A01E0010E040DF3CF15F0CE
:101360008250100B100A01E0010EE824146E825026
:10137000200B200A01E0010E141015101610171092
:10138000181019101A1000016C6F8250010B010A1D
:10139000080DF3CF16F08250020B020A01E0010E95
:1013A000040DF3CF15F08250040B040A01E0010E86
:1013B000E824146E8150100B100A01E0010E141085
:1013C0001510161000016D6F00016C51E66ED950BA
:1013D0000B0FE96EDACFEAFFE552E750EE6EED6AE9
:1013E0006DC014F014C015F0146AD9500B0FE96EDB
:1013F000DACFEAFF1450EE121550ED12DF6A0C0E30
:10140000DF5C01E3ACD2DF50FE0BE842146E010E4C
:10141000145204E0E846FE0B1406FCE10001B0158E
:1014200002E0010E01D0000E000901E10CD2DF50F4
:10143000010B01E004D20B0EDBCF16F00C0EDBCF5C
:1014400017F0DF5016C014F017C015F005E0D89063
:1014500015321432E804FBE1030E1416000E1516C3
:10146000080E14C0DBFF090E15C0DBFF020EE76E8D
:10147000080EDBCF16F0090EDBCF17F0E75016167B
:10148000176AD89017321632010EE76E080EDBCFBE
:1014900018F0090EDBCF19F0E7501816196AD8902A
:1014A0001836193616501810146E17501910156E7C
:1014B000080E14C0DBFF090E15C0DBFFDF506EC045
:1014C00014F06FC015F005E0D89015321432E8041E
:1014D000FBE1030E1416000E1516030E141801E19D
:1014E000155001E187D0020E141801E115505AE0A1
:1014F000010E141801E115502DE0145001E11550B2
:1015000001E0A0D0D950080FE96EDACFEAFFEE5023
:10151000ED1002E1000E19D0D950080FE96EDACFB4
:10152000EAFF010EEE1801E1ED5002E1010E0DD0CF
:10153000D950080FE96EDACFEAFF020EEE1801E18A
:10154000ED5002E1FF0E01D0FE0EE76E0A0EE7CF6E
:10155000DBFF78D0D950080FE96EDACFEAFFEE5002
:10156000ED1002E1FF0E19D0D950080FE96EDACF65
:10157000EAFF010EEE1801E1ED5002E1000E0DD080
:10158000D950080FE96EDACFEAFF020EEE1801E13A
:10159000ED5002E1FE0E01D0010EE76E0A0EE7CF1C
:1015A000DBFF50D0D950080FE96EDACFEAFFEE50DA
:1015B000ED1002E1010E19D0D950080FE96EDACF13
:1015C000EAFF010EEE1801E1ED5002E1FE0E0DD032
:1015D000D950080FE96EDACFEAFF020EEE1801E1EA
:1015E000ED5002E1000E01D0FF0EE76E0A0EE7CFCC
:1015F000DBFF28D0D950080FE96EDACFEAFFEE50B2
:10160000ED1002E1FE0E19D0D950080FE96EDACFC5
:10161000EAFF010EEE1801E1ED5002E1FF0E0DD0E0
:10162000D950080FE96EDACFEAFF020EEE1801E199
:10163000ED5002E1010E01D0000EE76E0A0EE7CF79
:10164000DBFF00D0030E166E176ADF5016C014F0D1
:1016500017C015F005E0D89014361536E804FBE104
:10166000141E151ED9500B0FE96EDACFEAFF145085
:10167000EE161550ED160A0EDB50FE0A01E190D071
:10168000010A4CE0FE0A1AE0010A01E0ABD0030EA9
:10169000166E176ADF5016C014F017C015F005E07B
:1016A000D89014361536E804FBE1141E151E1450AC
:1016B0000001701715500001711794D0DF5056ECDF
:1016C0001EF0F3CF14F0F4CF15F0D9500B0FE96EE4
:1016D000DACFEAFF1450EE121550ED12030E166E1B
:1016E000176ADF5016C014F017C015F005E0D89047
:1016F00014361536E804FBE1141E151E14500001C3
:101700007017155000017117DF5056EC1EF0F350A2
:1017100000017013F4500001711364D0020E166EB4
:10172000176ADF5016C014F017C015F005E0D89006
:1017300014361536E804FBE1D9500B0FE96EDACF09
:10174000EAFF1450EE121550ED12030E166E176AD2
:10175000DF5016C014F017C015F005E0D89014360D
:101760001536E804FBE1141E151E14500001701715
:10177000155000017117020E166E176ADF5016C061
:1017800014F017C015F005E0D89014361536E804AB
:10179000FBE114500001701315500001711322D0A9
:1017A000030E186E196ADF5018C016F019C017F032
:1017B00005E0D89016361736E804FBE10001000179
:1017C00070511614146E0001000171511714156E3A
:1017D000D9500B0FE96EDACFEAFF1450EE12155014
:1017E000ED1200D0030E166E176ADF5016C014F00B
:1017F00017C015F005E0D89014361536E804FBE163
:10180000141E151E145000016E17155000016F179D
:10181000080EDBCF16F0090EDBCF17F0DF5016C035
:1018200014F017C015F005E0D89014361536E8040A
:10183000FBE1145000016E13155000016F13070EE9
:10184000B1C0DBFF03D0070EAFC0DBFF0B0EDBCF59
:1018500016F00C0EDBCF17F0DF5056EC1EF01650D2
:10186000F314146E1750F414156E1450151002E092
:10187000010E01D0000E000941E0EA6ADF34FE0BE0
:10188000EA36E96E580EE926010EEA22010EE92633
:10189000000EEA22EFCF14F0070EDB50145C0EE2CC
:1018A000EA6ADF34FE0BEA36E96E580EE926010ECD
:1018B000EA22010EE926000EEA22EF2AEA6ADF3464
:1018C000FE0BEA36E96E580EE926010EEA22010EF9
:1018D000E926000EEA22EFCF14F0070EDB50145C6D
:1018E0000CE1EA6ADF34FE0BEA36E96E580EE926AF
:1018F000010EEA22070EDBCFEFFF2FD0EA6ADF34BA
:10190000FE0BEA36E96E580EE926010EEA22EF5088
:1019100000080AE2EA6ADF34FE0BEA36E96E580E86
:10192000E926010EEA22EF06EA6ADF34FE0BEA3608
:10193000E96E580EE926010EEA22EF500EE1EA6A3E
:10194000DF34FE0BEA36E96E580EE926010EEA2274
:10195000010EE926000EEA22EF6ADF2A50D50B0EAF
:10196000DBCF14F00C0EDBCF15F015C014F0156AA8
:1019700014C06DF00B0EDBCF6CF0200E0001E76E93
:10198000B719E8AE02D0E73402D0E750B75D03E301
:101990006450020B02E0F5EF13F0020EF36E020E3C
:1019A000F3CFDBFF0101706B0101716B0101726B01
:1019B0000101736B0101746B0101756B0101766BA1
:1019C0000101776B0101786B0101796BDF6A0C0E05
:1019D000DF5C01E3F5D1DF50FE0BE842146E010E2F
:1019E000145204E0E846FE0B1406FCE10001B015B9
:1019F00002E0010E01D0000E000904E0070EB1C0A4
:101A0000DBFF03D0070EAFC0DBFFEA6ADF34FE0B5B
:101A1000EA36E96E580EE926010EEA22010EE926A1
:101A2000000EEA22EFCF14F0070EDB50145C01E049
:101A3000BED1DF50EA6A720FE96E000EEA22010E93
:101A4000EF6EDF50030DF3CFE9FFF4CFEAFF8A0E0C
:101A5000E926000EEA22EF50030A01E133D1010A20
:101A600001E1FBD0030A01E0A0D1DF50030DF3CF69
:101A7000E9FFF4CFEAFF8A0EE926000EEA22010E02
:101A8000E926000EEA22EF50090A01E1A1D0010A7D
:101A900001E18AD00F0A74E0010A5BE0030A42E028
:101AA000010A29E0070A10E0010A0BE0030A06E038
:101AB000010A01E0CED001014081CBD00101408379
:101AC000C8D001014085C5D00101010E706F010130
:101AD000765110E1DF50030DF3CFE9FFF4CFEAFFB9
:101AE0008A0EE926000EEA22020EE926000EEA22FC
:101AF000EFCF76F1AED00101010E716F0101775188
:101B000010E1DF50030DF3CFE9FFF4CFEAFF8A0EB7
:101B1000E926000EEA22020EE926000EEA22EFCFA5
:101B200077F197D00101010E726F0101785110E138
:101B3000DF50030DF3CFE9FFF4CFEAFF8A0EE92669
:101B4000000EEA22020EE926000EEA22EFCF78F11B
:101B500080D00101010E736F0101795110E1DF5056
:101B6000030DF3CFE9FFF4CFEAFF8A0EE926000E5A
:101B7000EA22020EE926000EEA22EFCF79F169D0BF
:101B80000101010E746FDF50030DF3CFE9FFF4CFB5
:101B9000EAFF8A0EE926000EEA22020EE926000E6E
:101BA000EA22EFCF7AF155D00101010E756FDF50B7
:101BB000030DF3CFE9FFF4CFEAFF8A0EE926000E0A
:101BC000EA22020EE926000EEA22EFCF7BF141D095
:101BD000DF50030DF3CFE9FFF4CFEAFF8A0EE926C9
:101BE000000EEA22020EE926000EEA22EFCF76F17D
:101BF000DF50030DF3CFE9FFF4CFEAFF8A0EE926A9
:101C0000000EEA22020EE926000EEA22EFCF77F15B
:101C1000DF50030DF3CFE9FFF4CFEAFF8A0EE92688
:101C2000000EEA22020EE926000EEA22EFCF78F13A
:101C3000DF50030DF3CFE9FFF4CFEAFF8A0EE92668
:101C4000000EEA22020EE926000EEA22EFCF79F119
:101C500000D00001050EB56FA9D0020EDB500808B8
:101C60002DE0DF50030DF3CFE9FFF4CFEAFF8A0E3A
:101C7000E926000EEA22020EE926000EEA22EF50C3
:101C800001014813DF50030DF3CFE9FFF4CFEAFF62
:101C90008A0EE926000EEA22010EE926000EEA224B
:101CA000EF50E66E020EDB50EA6A480FE96E010E55
:101CB000EA22E552E750EF6E020EDB2A0001050E24
:101CC000B66F74D0DF50030DF3CFE9FFF4CFEAFF16
:101CD0008A0EE926000EEA22010EE926000EEA220B
:101CE000EF50010B02E00101476BDF50030DF3CF12
:101CF000E9FFF4CFEAFF8A0EE926000EEA22010E80
:101D0000E926000EEA22EF50020B02E001014769CA
:101D1000DF50030DF3CFE9FFF4CFEAFF8A0EE92687
:101D2000000EEA22010EE926000EEA22EF50040B13
:101D300002E00101466BDF50030DF3CFE9FFF4CF62
:101D4000EAFF8A0EE926000EEA22010EE926000EBD
:101D5000EA22EF50080B02E001014669DF50030D53
:101D6000F3CFE9FFF4CFEAFF8A0EE926000EEA225C
:101D7000020EE926000EEA22EF5001014413DF5063
:101D8000030DF3CFE9FFF4CFEAFF8A0EE926000E38
:101D9000EA22010EE926000EEA22EF380F0B0101BC
:101DA00045130001050EB46F01D000D007D0DF50FD
:101DB000EA6A720FE96E000EEA22EF6ADF2A07D69E
:101DC00001015051511102E1000E08D050C1E9FF4C
:101DD00051C1EAFFEF50800B01E0010E000901E064
:101DE000A8D1010170053FE101017651146E156A19
:101DF000145000017E27155000017F2300017F351C
:101E000004E27E513208000E7F552CE27EC014F0B1
:101E10007FC015F0320E0D6E0E6A14C008F015C0AA
:101E200009F058EC1DF008C014F009C015F008685E
:101E3000096814C00DF015C00EF07EEC1DF006C050
:101E400042F17EC07EF07FC07FF0320E0D6E0E6AD2
:101E50007EC008F07FC009F058EC1DF004C07EF091
:101E600005C07FF003D000017E6B7F6B010171051F
:101E700033E101017751146E156A14500001802777
:101E80001550000181230001813504E280513208A0
:101E9000000E815520E2320E146E156A80C008F0E3
:101EA00081C009F014C00DF015C00EF058EC1DF003
:101EB00008C042F180C080F081C081F0320E0D6E0A
:101EC0000E6A80C008F081C009F058EC1DF004C013
:101ED00080F005C081F003D00001806B816B0101AF
:101EE00072053FE101017851146E156A145000012A
:101EF00082271550000183230001833504E28251BB
:101F00003208000E83552CE282C014F083C015F015
:101F1000320E0D6E0E6A14C008F015C009F058ECB0
:101F20001DF008C014F009C015F00868096814C055
:101F30000DF015C00EF07EEC1DF006C041F182C020
:101F400082F083C083F0320E0D6E0E6A82C008F0FC
:101F500083C009F058EC1DF004C082F005C083F086
:101F600003D00001826B836B0101730533E1010132
:101F70007951146E156A1450000184271550000120
:101F800085230001853504E284513208000E855511
:101F900020E2320E146E156A84C008F085C009F084
:101FA00014C00DF015C00EF058EC1DF008C041F142
:101FB00084C084F085C085F0320E0D6E0E6A84C038
:101FC00008F085C009F058EC1DF004C084F005C08D
:101FD00085F003D00001846B856B0101740535E148
:101FE00001017A51146E156A1450000186271550AC
:101FF000000187230001873504E28651E808030EBB
:10200000875522E2E80E146E030E156E86C008F0A6
:1020100087C009F014C00DF015C00EF058EC1DF08B
:1020200008C043F186C086F087C087F0E80E0D6EC9
:10203000030E0E6E86C008F087C009F058EC1DF044
:1020400004C086F005C087F003D00001866B876B63
:102050000101750541E101017B51146E156A1450AF
:10206000000188271550000189230001893504E209
:102070008851E808030E89552EE288C014F089C003
:1020800015F0E80E0D6E030E0E6E14C008F015C0AC
:1020900009F058EC1DF008C014F009C015F00868EC
:1020A000096814C00DF015C00EF07EEC1DF006C0DE
:1020B00043F188C088F089C089F0E80E0D6E030EE8
:1020C0000E6E88C008F089C009F058EC1DF004C0FD
:1020D00088F005C089F003D00001886B896B40C18E
:1020E0006DF241C16EF242C16FF243C170F2010163
:1020F000406B0101416B0101426B0101436B000127
:10210000B551000816E2040EE66E6D0EE66E020E84
:10211000E66E010EE66E010EE66ED6EC15F0146E5C
:10212000050EE15E1450F3CF50F1F4CF51F10001F0
:10213000B50701015451551102E1000E08D054C1F8
:10214000E9FF55C1EAFFEF50800B01E0010E0009E5
:102150003AE148C161F249C162F24AC163F24BC13E
:1021600064F24CC165F24DC166F24EC167F24FC1D7
:1021700068F201014F6B4FC14EF14FC14DF14FC19C
:102180004CF14FC14BF14FC14AF14FC149F14FC121
:1021900048F10001B651000816E2080EE66E610E25
:1021A000E66E020EE66E010EE66E030EE66ED6ECED
:1021B00015F0146E050EE15E1450F3CF54F1F4CF18
:1021C00055F10001B60701015651571102E1000E09
:1021D00008D056C1E9FF57C1EAFFEF50800B01E07C
:1021E000010E000913E1010EE66E600EE66E020EAE
:1021F000E66EE66A030EE66ED6EC15F0146E050E7A
:10220000E15E1450F3CF56F1F4CF57F10101525172
:10221000531102E1000E08D052C1E9FF53C1EAFF99
:10222000EF50800B01E0010E00092CE144C169F27E
:1022300045C16AF246C16BF247C16CF20101446BC1
:102240000101456B0101800E466F0101800E476F51
:102250000001B451000816E2040EE66E690EE66E47
:10226000020EE66E010EE66E020EE66ED6EC15F07C
:10227000146E050EE15E1450F3CF52F1F4CF53F11A
:102280000001B40700016651671102E1000E08D099
:1022900066C0E9FF67C0EAFFEF50800B01E0010E66
:1022A000000901E0A2D202017951560A01E11BD2D4
:1022B000370A01E1DED1340A01E1CAD16D0A01E138
:1022C00087D10F0A01E114D1B50A01E1ADD0030AAB
:1022D00001E17BD0010A01E075D2050E02019E5D8D
:1022E00073E1AA0E02019F5D6FE1550E0201A05D30
:1022F0006BE10B0E0201A15D67E10E0E0201A25D12
:1023000063E1DF6A0C0EDF5C5FE2010EDB6A030E45
:10231000F36E010EDBCFF4FFF350F45C53E2010ED9
:10232000DBCFE6FF030EDF02F328E552E724EA6A7B
:10233000790FE96E020EEA22EF50E66EDF50030DD0
:10234000F3CF14F0F4CF15F08A0E1426000E1522E8
:10235000010EDB500F011424E96E000E1520EA6E09
:10236000E552E750EF6E050EE66EDF50030DF3CF3A
:1023700014F0F4CF15F08A0E1426000E1522010E6B
:10238000DB500F011424E96E000E1520EA6EEF50A9
:10239000E66E010EDBCFE6FF030EDF02F350E552DF
:1023A000E724050DF350E66EE66A76EC1CF0E55284
:1023B000E552E552E552E76E060EE7CFDBFF010E70
:1023C000DB2AA5D7DF2A9ED7FDD10201810EB96F86
:1023D0006CC0BAF20F0E00016D150201BB6F000157
:1023E0006851691102E1000E08D068C0E9FF69C0B8
:1023F000EAFFEF50800B01E0010E000914E1400EEE
:10240000E66EB90EE66E020EE66E010EE66E040E84
:10241000E66ED6EC15F0146E050EE15E1450F3CFA7
:1024200068F0F4CF69F0CED10201820EB96F050ECB
:1024300002017A5D5CE1AA0E02017B5D58E1550E56
:1024400002017C5D54E10B0E02017D5D50E10E0E38
:1024500002017E5D4CE17FC2AEF080C2AFF081C26E
:10246000B0F082C2B1F0050EE66EAEC0E6FFB40E6B
:10247000E66EE66876EC1CF0E552E552E552E55270
:10248000E76E060EE7CFDBFF050EE66EAFC0E6FF98
:10249000B90EE66EE66876EC1CF0E552E552E552C0
:1024A000E552E76E060EE7CFDBFF050EE66EB0C025
:1024B000E6FFBE0EE66EE66876EC1CF0E552E552ED
:1024C000E552E552E76E060EE7CFDBFF050EE66E3E
:1024D000B1C0E6FFC30EE66EE66876EC1CF0E5528E
:1024E000E552E552E552E76E060EE7CFDBFF6AD113
:1024F00000016851691102E1000E08D068C0E9FFCF
:1025000069C0EAFFEF50800B01E0010E00095FE1B6
:102510000201370EB96FDF6A0C0EDF5C34E2010E88
:10252000DB6A030EF36E010EDBCFF4FFF350F45CB5
:1025300028E2DF50030DF3CF14F0F4CF15F08A0E2C
:102540001426000E1522010EDB500F011424E96E33
:10255000000E1520EA6EEF50E66E010EDBCFE6FFAF
:10256000030EDF02F350E552E724010FEA6AB90FC8
:10257000E96E020EEA22E552E750EF6E010EDB2A09
:10258000D0D7DF2AC9D700016851691102E1000ED6
:1025900008D068C0E9FF69C0EAFFEF50800B01E096
:1025A000010E000914E1400EE66EB90EE66E020E51
:1025B000E66E010EE66E040EE66ED6EC15F0146EB5
:1025C000050EE15E1450F3CF68F0F4CF69F0FAD055
:1025D00000016851691102E1000E08D068C0E9FFEE
:1025E00069C0EAFFEF50800B01E0010E00092FE106
:1025F0000201380EB96FAEC0BAF2AFC0BBF2B0C0C4
:10260000BCF2B1C0BDF200016851691102E1000ED7
:1026100008D068C0E9FF69C0EAFFEF50800B01E015
:10262000010E000914E1400EE66EB90EE66E020ED0
:10263000E66E010EE66E040EE66ED6EC15F0146E34
:10264000050EE15E1450F3CF68F0F4CF69F0BAD014
:102650006492646ADF6AFF0EDF5C09E2E868E850B2
:1026600004E0E80600D000D0FAD7DF2AF4D7FF0054
:10267000A9D00201610EB96F0201BA6B050EE66EB8
:10268000E668000EE66EE66A76EC1CF0E552E5526E
:10269000E552E552E76E060EE7CFDBFF0001685119
:1026A000691102E1000E08D068C0E9FF69C0EAFFC5
:1026B000EF50800B01E0010E000914E1400EE66EC0
:1026C000B90EE66E020EE66E010EE66E040EE66EC2
:1026D000D6EC15F0146E050EE15E1450F3CF68F0E1
:1026E000F4CF69F06FD00201560EB96F600EE66E3E
:1026F000000EE66E14EC1EF0E552E552040EF3CF28
:10270000DBFF146A040EDB50E76E1418E8AE02D04B
:10271000E73402D0E750145C2EE2040EDBCF15F054
:102720003E0EE76E1518E8AE02D0153403D0E75020
:10273000D880155420E3DF6A040EDB50DF5C13E21F
:10274000DF50EA6A600FE96E000EEA22EF50E66E93
:10275000DF28EA6AB90FE96E020EEA22E552E75075
:10276000EF6EDF2AE9D7DF28EA6AB90FE96E020EB9
:10277000EA22EF6A02D00201BA6B000168516911C6
:1027800002E1000E08D068C0E9FF69C0EAFFEF501F
:10279000800B01E0010E000914E1400EE66EB90E57
:1027A000E66E020EE66E010EE66E040EE66ED6ECE6
:1027B00015F0146E050EE15E1450F3CF68F0F4CFFF
:1027C00069F000D0400EE66E790EE66E020EE66EFF
:1027D000E66A040EE66ED6EC15F0146E050EE15EA8
:1027E0001450F3CF66F0F4CF67F00D0EE15C02E217
:1027F000E16AE552E16EE552E7CFD9FF120012001F
:10280000120012001200C7EF1CF012001E0EE66E3E
:10281000010E89D8020E87D8030E85D8040EE66E05
:10282000B2EC15F0E552E552120064840101080E85
:102830007C6F070E7D6F7C07000E7D5B7C517D11E8
:10284000FAE164941200D9CFE6FFE1CFD9FFFD0E83
:10285000DBCF08F0FE0EDBCF09F0720E081801E1A5
:10286000095033E0E868081802E17F0E09182BE0F0
:10287000740E081801E1095024E0750E081801E1F2
:1028800009501DE0730E081801E1095016E0030E0F
:10289000081801E109500FE0020E081801E1095083
:1028A00008E0010E081801E1095001E010D0AEDF88
:1028B0000FD0ABDF0DD0A7DF0BD0A3DF09D09FDF98
:1028C00007D09EDF05D09EDF03D0000001D000D0EE
:1028D000010E00D0E552E7CFD9FF120076EC1CF0D4
:1028E000E552E552E552E552B3EF14F0E66EE668C4
:1028F0002DEC1CF0146E060EE15E1450B3EF14F0D4
:10290000E66E030EE66E050EE66E1200010EDBCFDC
:10291000E6FF030EDF02F350E552E724050DF35006
:10292000E66EE66A1200E66EB2EC15F0E552E5528C
:102930001E0EE66E1200EA6ADF34FE0BEA36E96E1E
:10294000580EE926010EEA221200030EF36E010E64
:10295000DBCFF4FFF350F45C1200E66EE668BEDFF6
:10296000050EE66E1200E76E030EE7CFDBFF1200E6
:10297000FDEC1AF0A0940F015F6B626A536BDCEC04
:102980001AF083EC1AF0DF6ADF50146E156A140E29
:10299000145C000E155810E2DF50040DF3CFE9FF70
:1029A000F4CFEAFF000EE926020EEA22EE6AEE6A92
:1029B000EE6AEE6ADF2AE8D7648C0F015C6B6498DC
:1029C000649C62A607D062960001D66BDB6BDC6B61
:1029D000DD6BF7D70001010EF36FF46FF56BF66B4B
:1029E000E36BDF6A050EDF5C11E2EA6ADF3400ECBC
:1029F0001BF0EA22EE6AED6AEA6ADF3407EC1BF0AC
:102A0000EA22EE6AED6A4CEC1AF0ECD70001080EEF
:102A1000C86F020EC96F0F01160E536F0201500EE0
:102A2000026F020E036F080E016F840E006F00012B
:102A3000B86BB76BE5521EEF1AF0FDEC1AF000010F
:102A4000B7510BE1646A606A83EC1AF064B602D095
:102A50006486FCD70001010EB76FB70508E164BAC0
:102A600006D0626A606A60806088020EB76F62504A
:102A7000040B05E06050040B02E0629422DB64B2B8
:102A80003ED06250010B08E06050010B05E070DFA2
:102A90000001040EB76F62906250100B05E06050A9
:102AA000100B02E004DB629862AC08D060AC05D089
:102AB0009BEC1AF0730E0BEC1AF0629C6250200B28
:102AC00004E06050200B01E0E1DA6250020B0CE000
:102AD0006050020B09E09BEC1AF0E6687F0EE66E90
:102AE0000EEC1BF00F015F6B040E0001E76EB719CF
:102AF000E8AE02D0E73402D0E750B75D02E2A1941D
:102B00002ED060A62BD0DF6A040EDF5C27E262A61F
:102B100025D063CFE4F00001E451780BE842E842AD
:102B2000E842E56F6296E4B504D0E55115EC1BF080
:102B300003D0E5511AEC1BF0EA22EF70E55102E1F7
:102B4000CCDA0AD0000EE66EE66AE40EE66E000EFF
:102B5000E66E720E0BEC1AF0DF2AD6D7A194E5527E
:102B60001EEF1AF0CEEC1AF0FD0EDBA403D0E66ADD
:102B70008BEC1AF0FD0EDBA204D0010EE66E8BEC9E
:102B80001AF0FE0EDB50156A530F146E0F0E7DEC1B
:102B90001AF00FEC1AF0FD0EDBCFEFFF020EE15C36
:102BA00002E2E16AE552E16E1EEF1AF0CEEC1AF095
:102BB000FD0EDB5003E006EC1AF002D03DEC1AF0FB
:102BC00069EC1AF0D9CFE9FFDACFEAFFEE50ED1049
:102BD00003E1F36AF46A28D00FEC1AF029EC1BF039
:102BE000FB0EDBCFEEFFFC0EDBCFEDFF0FEC1AF0A0
:102BF000EE52FA0EDBCFEFFF400E1FEC1BF0880EFB
:102C00002EEC1BF0FD0EDB5003E006EC1AF002D0B8
:102C10003DEC1AF0EA22EF74DECF14F0DDCF15F0B0
:102C200014C0F3FF15C0F4FF020EE15C02E2E16A9A
:102C3000E552E16E1EEF1AF0CEEC1AF0FE0EDB50FC
:102C400003E1E5EC1AF009D042EC1AF0BCEC1AF002
:102C500042EC1AF0010FBCEC1AF0020EE15C02E249
:102C6000E16AE552E16EEAD3E4DB64A816D0F6EC43
:102C70001AF0400EEE16EE6AEE6AEE6AF6EC1AF004
:102C8000EE7CC4DBEA22EF74400E146EF6EC1AF010
:102C90001450EF16F6EC1AF0EF7CD0D30001F3518C
:102CA00022E1010EF36FF4511EE1010EF46F020EEA
:102CB000D35D07E1B9DBEE52EF6AB6DBC80EEF6E0B
:102CC0001200D30510E1E66BC5DBEE52080EEF6E85
:102CD000C1DBC8EC1AF0BEDB840EEF6E010EE66FAE
:102CE00091DB800EEF6E12000001F56BF66B020EA9
:102CF000D35D06E123EC1BF0B2DBB7EC1AF010D089
:102D0000D7510201565D0001D8510201575904E222
:102D100056C2D7F057C2D8F061D886DBA0DB84DB7F
:102D2000C80EEF6E1200CEEC1AF0000EDE6E020E30
:102D3000DD6EA8DB040DF4CF15F0D9CFE9FFDACFB3
:102D4000EAFFF350EE261550ED2269DBEF9EFD0EF3
:102D5000DB5002E192DB01D059DBEA22DECFEEFF4D
:102D6000DDCFEDFF5CDBEF9C5ADB040EE926000EA5
:102D7000EA22EF8C020EE15C02E2E16AE552E16ECA
:102D80005DD364980001D6BF0DD0DBAF09D0020E31
:102D9000D36FF65101E1A8DF0001F46BF36B120071
:102DA000E5EF1AF0020150AF0DD00001010ED36F14
:102DB000F55101E199DF0001F46BF36BF2510DE184
:102DC0004EEF16F00001020ED36F1CDB840EEF6E87
:102DD000F46BF36BF25101E161DF1200FDEC1AF0CC
:102DE000080EDF6E0001D75D000ED8590AE2D7C089
:102DF000DFFFD25102E1010E03D0D20502E1020E43
:102E0000D26FDF50156AE850D75DD76F1550D8598B
:102E1000D86F0ADBEE52DFCFEFFF580EE06F020EE5
:102E2000E16FD6B10DD0DF5017E0D4C0F6FFD5C0AA
:102E3000F7FFD42B000ED5230800F5503DDBF3D768
:102E4000DF500AE0D4C0E9FFD5C0EAFFD42B000E62
:102E5000D523EF5031DBF4D7E552F0D29FDBFADA1D
:102E6000EE52EFCFDFFFDFCF14F014500001DC5D36
:102E7000000EDD5902E2DCC0DFFFDF50146E156A80
:102E8000E850DC5DDC6F1550DD59DD6F010EDB6A4B
:102E9000DF50F36E010EDBCFF4FFF350F45C16E26B
:102EA000010EDB50EA6A580FE96E020EEA22EF507B
:102EB000E66ED9C0E9FFDAC0EAFFD92B000EDA23AB
:102EC000E552E750EF6E010EDB2AE2D7000ED88004
:102ED000DC55000EDD550DE2B6DBC1DABBDAEF5092
:102EE000400B03E144DBC80E02D041DB880EEF6EDD
:102EF00012D088DA840EEF6EDE51DF1107E005D0C4
:102F0000DFC0FAFF0001DE51F96EFADF0001DB9F3E
:102F1000F25101E1C3DE020EE15C02E2E16AE55238
:102F2000E16E8CD26ADB0001D68F46DB500EE66E76
:102F3000E66AE66A000EE66E020E97DA648CDF6AD5
:102F4000050EDF5C02E2A8DAFBD7010EE66EE66A48
:102F5000E66AB90EE66E000E88DA649C0001080E7F
:102F6000C86F020EC96F000EBA6F020EBB6FBAC0F7
:102F7000BCF0BD6F52C2B8F0B85102E1100E0BD0D8
:102F8000010EE66EE66AB80EE66E000EE66E010E03
:102F900042DA0001200EB76FE55250D2800E0201D6
:102FA000505D38E10001C00ED66F02015351030A93
:102FB0001AE0010A09E0030A2BE10001640ED46F54
:102FC000360ED56F120E1ED0C4DA0D0EF626380E50
:102FD000AADA020E0001B6DAF5CFD7F0030EB2DAA4
:102FE000F5CFD8F01200030E525D0FE2B2DA0F0EE9
:102FF000F626380E98DAD4C0F6FFD5C0F7FF0800E1
:10300000F5500001D76FD86B12000001D66B12008B
:103010000001D66B1200C2DA0201586B596B505195
:103020001F0B020A11E0030A0CE0010A1EE1000175
:10303000D68F020158810001E20517E10201588391
:1030400014D00001D68F11D00001D68F020154BFD9
:1030500002D0C2DA01D0C5DA3CDACBDA06E0DFD939
:10306000EF50040B02E0010E586F0001D6AF07D0FD
:10307000580ED46F020ED56FD681020ED76F020E96
:10308000E15C02E2E16AE552E16ED8D10F0153A1A1
:103090000CD0E0D9EF50800807E1C6D9EF50840882
:1030A00003E1D8D98C0EEF6E5391629A12006084BE
:1030B000629864820001010EE36F11DA750E0BEF66
:1030C0001AF00001E36B0BDA740EA5D964926094D8
:1030D00062A402D06294FCD712008FDAFD0E0001C8
:1030E000E41539E17E0EE415E8407F0B040DF3CFC3
:1030F000BAF0F4CFBBF0000EBA27020EBB23BAC061
:10310000BCF0BBC0BDF0BC75A5D9EF503C0BE8428C
:10311000E8420D081EE1DF6A080EDF5C16E29AD96C
:10312000020EE926000EC2D9EF50E66EDF50EA6AC1
:10313000500FE96E020EEA22E552E750EF6E8AD98F
:1031400088DAEE2AEF22DF2AE7D784D921DA0AD8F3
:1031500007D023D805D0FD0EE415040801E12CD8D2
:10316000E5526CD10001D26BF26BF56BF66BE66B3E
:10317000D36B5AD9EF9EC87557D9EF9EC875F7D94A
:10318000EF9ED66BD76BD86BDB6BDC6BDD6B51D8EE
:10319000A6D9030E40D9C1EF16F0020E0001D35D8F
:1031A00002E12EEF17F0D36BE65104E12BD98C0E20
:1031B000EF6E1200E66B120020DA36D9EF50400BAA
:1031C00001E0010EDF6E0001C875080EB75D0BE16E
:1031D00052C25CFF0F015C5103E00001100E02D0EF
:1031E0000001040EB76FD30513E11ED938D9F6DDFF
:1031F000020E0001D25D03E117D9840E07D0DF5023
:1032000003E112D9C80E02D00FD9880EEF6E0FD08D
:10321000DBAF0CD0DE51DF1107E005D0DFC0FAFFD5
:103220000001DE51F96EFADF0001DB9FD36BE5523E
:1032300005D102015051600BE842E842E842E84201
:10324000E842000901E0120051510C0A45E00B0A66
:103250003FE00C0A31E0010A22E00B0A1EE0020AFC
:103260001CE0030A18E0080A10E0010A0CE00F0A4B
:1032700008E0030A01E012000001D68F080EB76FC4
:103280001200CEEF17F092EF17F00001B80ED46FD6
:10329000000ED56F0CD00BEF18F06DEF19F05451F4
:1032A0000001D46FD56BB90ED427000ED523D6817B
:1032B000010ED76FD68F12000001D68F0201545134
:1032C000EA6AB90FE96E000EEA2252C2EFFF12005D
:1032D00006D9020E0BEF1AF01200ABD8050EE1264C
:1032E0000201520510E150511F0B00090CE10001D1
:1032F000D68F030E0201515D04E10001010EE26F61
:1033000002D00001E26B0201525101E074D0505131
:103310001F0B020870E154510F0B00096CE054516F
:103320000F0B040868E3200E0001B75D64E1D68F3F
:10333000020154BF04D050D9CCD8D7D803D051D92A
:10334000C8D8D7D8EA22020EEFCFDBFF09D9010B8C
:1033500003E1000EDF9401D0DF8454BF02D03CD9DA
:1033600001D03FD9EA22DECFEEFFDDCFEDFF030E25
:10337000515D0CE13ED907E054BF02D0B6D801D070
:10338000B8D8EA22EF82840E69D935D0DF7431D9FA
:1033900006E045D8EF9E43D8EF8C04D902D03FD841
:1033A000EF8CDF74DDD8020B02E123D90DE00201BE
:1033B00054BF02D09AD801D09CD8EA22EF923B0E9B
:1033C000146E3DD9EFD802D03B0E39D902015451C9
:1033D0000F0B156A530F146E0F0E1522030E14C037
:1033E000DBFF040E15C0DBFF030EDBCFE9FF040E8D
:1033F000DBCFEAFFEF90050EE15C02E2E16AE55205
:10340000E16E1CD020D9C4D8B7EF1AF0FE0EEA6ADC
:10341000DB3400EF1BF0E66EE66A0EEF1BF0DECF4A
:10342000E9FFDDCFEAFF1200C8C0E9FFC9C0EAFF2B
:103430001200D9CFE6FFE1CFD9FF1200E552E7CF66
:10344000D9FF120054510F0BE96EEA6AD890E936A1
:10345000EA361200BAC0E9FFBBC0EAFF1200F9D891
:10346000580EEE6E020EED6E1200E66EFAEC1DF0D6
:10347000146E050EE15E14501200FE0EEA6ADB3493
:1034800007EF1BF0FD0EDB50E824166EFE0EDB503E
:10349000040DF35016241200DF50CCD8EA22EF6A54
:1034A000DF50C3D8EA22EF6ADF2A1200EA22EE5088
:1034B000EFCFEAFFE96E1200E66EE0C0E9FFE1C07F
:1034C000EAFFE02B000EE123E552E750EF6EDF0646
:1034D0001200EA22EECFDEFFEDCFDDFF1200000E7C
:1034E000E66EE66AE66EE66A120054510F0B15EFBF
:1034F0001BF054510F0B1AEF1BF0152214C0DEFF06
:1035000015C0DDFF1200160E616E0F019F0E5B6F7E
:103510007B0E606E1200FE0EDBCFE6FF93EC16F022
:10352000E552E5521200F7220900F5CFD4F00A0067
:10353000F5CFD5F01200010EE66EE66A000EE66EDB
:10354000E66A1200F76AD425F66ED551F722080014
:1035500012005251F66EF76AD890F636F73612001E
:10356000D950020FE96EDACFEAFFEF501200BCC06B
:10357000E9FFBDC0EAFF1200040DF3CF14F0F4CF51
:1035800015F0000E1426020EB8DF840E2EEF1BF08D
:1035900060D8500EEE6E020EED6E12004ADF020E83
:1035A000E1261200020EE66EE66ADECFE6FFDDCF10
:1035B000E6FF050E0BEF1AF0040EE66EE66AE66A09
:1035C000540EE66E0F0E35EF1AF01CDF8C0EEF6E08
:1035D0002BDF840EEF6E120035DFBE0EE926000EE3
:1035E000120030DFC80EE926000E12000FDF56EF82
:1035F0001AF015DFEF50800B12001BDFE6521200AD
:10360000FE0BEA36E96EC80EE926000E1200FE0B2C
:10361000EA36E96EBE0EE926000E120023EC14F025
:10362000146E060EE15E14501200EA6AEC0FE96EA9
:10363000000E1200EA6AE70FE96E000E1200EFDEDC
:10364000E850EF16120093DFEE52080EEF6EB7EF60
:103650001AF0020EE926000EEA221200E0DEE8501F
:10366000EF1212001201000200000008EA22890095
:1036700001000102000109028200040100C03209B8
:10368000040000010301020009211101000122349C
:103690000007058103040001090401000203000082
:1036A00000092111010001223100070582034000B9
:1036B00001070502034000010904020002030101A1
:1036C00000092111010001223F00070583030800C2
:1036D00001070503030800010904030002030000B9
:1036E00000092111010001221D000705840340008B
:1036F000010705040340000105010902A1010901B8
:10370000A10005091901290315002501950375017B
:1037100081029501750581010501093009310938DA
:103720001581257F750895038106C0C0050109052F
:10373000A10115002501350045017501950C05090C
:103740001901290C81029504810105010930093113
:1037500026FF0046FF00750895028102C005010999
:1037600006A101050719E029E71500250175019556
:1037700008810295017508810395057501050819F1
:1037800001290591029501750391039506750815A8
:103790000025E70507190029E78100C00600FF0999
:1037A00001A10119012940150026FF007508954067
:1037B0008100190129409100C00403090426034235
:1037C000006900740020005400720061006400650C
:1037D0000020004F006E00650020004C00540044A3
:1037E000002E002A035200450056004900560045AD
:1037F0000020005500530042002000540079007062
:103800000065002D0043002000450078007636B9A1
:1038100037BD37E337FFA1D8FD0EDB50A96EA66A8E
:10382000A680A8509FD099D8E652DF6AA6B20ED0E3
:10383000FD0EDB50A96EFC0EDB50A86E040EA66ECA
:10384000550EA76EAA0EA76EA68202D0010EDF6EDD
:10385000A6B2FED7DF50E55285D07FD8050EE1260F
:10386000010EDF6EDB6A87D8EF6A020EDB6AFC0EA0
:10387000DB50F36E020E7AD82FE2010EDB6A020EE5
:1038800081D8E76E040EE7CFDBFF020EDB28E76E80
:10389000030EE7CFDBFFFC0EDB50F36E030E66D8A2
:1038A0000CE2030E6FD8F36E040EDB50F35C02E102
:1038B000010EDB2A030EDB2AEED7FB0EDB04F36ED0
:1038C000010E54D806E357D8040EDBCFEFFFDF6AB2
:1038D00003D0020EDB2ACBD7DF50146E050EE15C5D
:1038E00002E2E16AE552E16E14503CD036D8020E95
:1038F000E126DF6A010EDB6AFB0EDB50F36E010E80
:1039000035D810E2FC0EDBCFE6FF010E15D88BDFB9
:10391000E552E552E552000902E0010EDF6E010EAC
:10392000DB2AEAD7DF50146E020EE15C02E2E16AA4
:10393000E552E16E145016D0DB50E76EFD0EDBCF82
:1039400014F0FE0EDBCF15F0E7501426000E152202
:1039500014C0E6FF15C0E6FF1200D9CFE6FFE1CFA5
:10396000D9FF1200E552E7CFD9FF1200DBCFF4FFF9
:10397000F350F45C1200F90EDBCFE9FFFA0EDBCF57
:10398000EAFF1200D9DF47DFE552E55212000201DB
:1039900050511F0B010801E01200060E515D4EE16F
:1039A0005351230A4BE0010A21E0030A47E1545135
:1039B000030A15E0010A0EE0030A07E0010A3EE1EE
:1039C0000001880ED46F360E0ED00001A10ED46F08
:1039D000360E09D00001C10ED46F360E04D000019E
:1039E000E10ED46F360ED56F090E24D05451030A60
:1039F0001BE0010A12E0030A09E0010A1FE10001CD
:103A0000F80ED46F360ED56F340E14D000012C0E84
:103A1000D46F370ED56F310E0DD000015D0ED46F0F
:103A2000370ED56F3F0E06D000019C0ED46F370EB7
:103A3000D56F1D0ED76FD86BC00ED66F02015051D7
:103A4000600BE842E842E842E842E842010801E04F
:103A5000120051510B0A26E0080A19E0090A11E088
:103A6000080A05E00B0A23E0080A21E01200000121
:103A7000F70ED46F000ED56F010ED76FD86BC10E45
:103A80000FD00001800ED66F53C2F7F01200000174
:103A9000F80ED46F000ED56F010ED76FD86B810E64
:103AA000D66F12000001800ED66F52C2F8F01200DD
:103AB000006A0EAE61EF1DF00D6C0E1EE86A0E225C
:103AC000001E09AE69EF1DF0086C091EE86A0922A4
:103AD000001E22EC1EF009BE79EF1DF000AE000CB6
:103AE000086C091EE86A0922046C051EE86A0522B2
:103AF000000C00BE70EF1DF00188FF0C09C013F030
:103B000008C012F008500D02F4CF07F0F3CF06F012
:103B100009500E02F4CF09F0F3CF08F00D02F35074
:103B20000726F4500822E86A092212500E02F350C8
:103B30000726F4500822E86A09220EAEA4EF1DF011
:103B40001250085E1350095A13AE000C0D50085E57
:103B50000E50095A000C1E0EF66E100EF76E000E77
:103B6000F86E01010900F550836F0900F550846F6C
:103B700003E1836701D03DD00900F5507E6F090055
:103B8000F5507F6F0900F550806F09000900F5506E
:103B9000E96E0900F550EA6E090009000900F550C8
:103BA000816F0900F550826F09000900F6CF85F199
:103BB000F7CF86F1F8CF87F17EC1F6FF7FC1F7FF1F
:103BC00080C1F8FF0101815302E1825307E009003F
:103BD000F550EE6E8107F8E28207F9D785C1F6FF4E
:103BE00086C1F7FF87C1F8FF01018307000E845BE0
:103BF000BFD71200FE0EE3CFE9FFFF0EE3CFEAFFCF
:103C0000E9CFF3FFEACFF4FFFB0EE35003E1FC0E34
:103C1000E35009E0FB0EE30602E2FC0EE306FD0EB4
:103C2000E350EE6EF1D71200FE0EE3CFE9FFFF0E78
:103C3000E3CFEAFFF36AF46AEE5203E0F34AF42AB0
:103C4000FBD71200056A046A100EE76ED89008369A
:103C50000936043605360D50045C0E50055805E350
:103C60000D50045E0E50055A082AE72EF0D71200B8
:103C7000000EF36E00EE00F0030E01D81200EA60B1
:103C800002D0EE6AFCD7F350E9601200EE6AFCD76E
:103C900011EE00F021EE00F0F86A019CABEC1DF093
:103CA00003EC08F03DEC08F0FBD71200F36AF46A6D
:103CB000F32A0F0B05E0D890F336F436E804FBE165
:103CC0001200312E302E30000000000000000000F5
:103CD00000000000000000000000000000000000E4
:103CE00000000000000000000000000000000000D4
:103CF00000000000000000000000000000000000C4
:103D000000000000000000000000000000000000B3
:103D1000040200010000000000FFFFFFFFFFFFFFA3
:103D2000FFFFFFFFFFFFFFFFFFFFFFFFFFFFFFFFA3
:103D3000FFFFFFFFFFFFFFFFFFFFFFFFFFFFFFFF93
:103D4000FFFFFFFFFFFFFFFFFFFFFFFFFFFFFFFF83
:103D5000FFFFFFFFFFFFFFFFFFFFFFFFFFFFFFFF73
:0200000400F00A
:1000B0000000000004040404040202020202000022
:1000C0000000000101010101FFFFFFFFFFFFFFFF33
:1000D000FFFFFFFFFFFFFFFFFFFFFFFFFFFFFFFF30
:1000E000FFFFFFFFFFFFFFFFFFFFFFFFFFFFFFFF20
:1000F000FFFFFFFFFFFFFFFFFFFFFFFFFFFFFFFF10
:020000040030CA
:0E0000000032211E0000010000C003E003409A
:020000040020DA
:08000000FFFFFFFFFFFFFFFF00
:00000001FF
